{
  "_format": "hh-sol-artifact-1",
  "contractName": "TokenFactory",
  "sourceName": "contracts/TokenFactory.sol",
  "abi": [
    {
      "inputs": [
        {
          "internalType": "string",
          "name": "_name",
          "type": "string"
        },
        {
          "internalType": "string",
          "name": "_symbol",
          "type": "string"
        },
        {
          "internalType": "uint256",
          "name": "_initialSupply",
          "type": "uint256"
        },
        {
          "internalType": "uint8",
          "name": "_decimals",
          "type": "uint8"
        }
      ],
      "name": "createToken",
      "outputs": [],
      "stateMutability": "nonpayable",
      "type": "function"
    },
    {
      "inputs": [],
      "name": "getAllTokens",
      "outputs": [
        {
          "internalType": "address[]",
          "name": "",
          "type": "address[]"
        }
      ],
      "stateMutability": "view",
      "type": "function"
    },
    {
      "inputs": [
        {
          "internalType": "uint256",
          "name": "",
          "type": "uint256"
        }
      ],
      "name": "tokens",
      "outputs": [
        {
          "internalType": "address",
          "name": "",
          "type": "address"
        }
      ],
      "stateMutability": "view",
      "type": "function"
    }
  ],
  "bytecode": "0x608060405234801561001057600080fd5b50612317806100206000396000f3fe60806040523480156200001157600080fd5b5060043610620000465760003560e01c80632a5c792a146200004b5780634f64b2be146200006d578063b64acddd14620000a3575b600080fd5b62000055620000c3565b60405162000064919062000580565b60405180910390f35b6200008b6004803603810190620000859190620003ac565b62000153565b6040516200009a9190620004f8565b60405180910390f35b620000c16004803603810190620000bb9190620002fc565b62000193565b005b606060008054806020026020016040519081016040528092919081815260200182805480156200014957602002820191906000526020600020905b8160009054906101000a900473ffffffffffffffffffffffffffffffffffffffff1673ffffffffffffffffffffffffffffffffffffffff1681526020019060010190808311620000fe575b5050505050905090565b600081815481106200016457600080fd5b906000526020600020016000915054906101000a900473ffffffffffffffffffffffffffffffffffffffff1681565b60003385858585604051620001a89062000242565b620001b895949392919062000515565b604051809103906000f080158015620001d5573d6000803e3d6000fd5b5090506000819080600181540180825580915050600190039060005260206000200160009091909190916101000a81548173ffffffffffffffffffffffffffffffffffffffff021916908373ffffffffffffffffffffffffffffffffffffffff1602179055505050505050565b611b2780620007bb83390190565b6000620002676200026184620005cd565b620005a4565b90508281526020810184848401111562000286576200028562000766565b5b62000293848285620006b7565b509392505050565b600082601f830112620002b357620002b262000761565b5b8135620002c584826020860162000250565b91505092915050565b600081359050620002df8162000786565b92915050565b600081359050620002f681620007a0565b92915050565b6000806000806080858703121562000319576200031862000770565b5b600085013567ffffffffffffffff8111156200033a57620003396200076b565b5b62000348878288016200029b565b945050602085013567ffffffffffffffff8111156200036c576200036b6200076b565b5b6200037a878288016200029b565b93505060406200038d87828801620002ce565b9250506060620003a087828801620002e5565b91505092959194509250565b600060208284031215620003c557620003c462000770565b5b6000620003d584828501620002ce565b91505092915050565b6000620003ec838362000409565b60208301905092915050565b62000403816200066c565b82525050565b620004148162000658565b82525050565b620004258162000658565b82525050565b6000620004388262000613565b62000444818562000636565b9350620004518362000603565b8060005b83811015620004885781516200046c8882620003de565b9750620004798362000629565b92505060018101905062000455565b5085935050505092915050565b6000620004a2826200061e565b620004ae818562000647565b9350620004c0818560208601620006c6565b620004cb8162000775565b840191505092915050565b620004e181620006a0565b82525050565b620004f281620006aa565b82525050565b60006020820190506200050f60008301846200041a565b92915050565b600060a0820190506200052c6000830188620003f8565b818103602083015262000540818762000495565b9050818103604083015262000556818662000495565b9050620005676060830185620004d6565b620005766080830184620004e7565b9695505050505050565b600060208201905081810360008301526200059c81846200042b565b905092915050565b6000620005b0620005c3565b9050620005be8282620006fc565b919050565b6000604051905090565b600067ffffffffffffffff821115620005eb57620005ea62000732565b5b620005f68262000775565b9050602081019050919050565b6000819050602082019050919050565b600081519050919050565b600081519050919050565b6000602082019050919050565b600082825260208201905092915050565b600082825260208201905092915050565b6000620006658262000680565b9050919050565b6000620006798262000680565b9050919050565b600073ffffffffffffffffffffffffffffffffffffffff82169050919050565b6000819050919050565b600060ff82169050919050565b82818337600083830152505050565b60005b83811015620006e6578082015181840152602081019050620006c9565b83811115620006f6576000848401525b50505050565b620007078262000775565b810181811067ffffffffffffffff8211171562000729576200072862000732565b5b80604052505050565b7f4e487b7100000000000000000000000000000000000000000000000000000000600052604160045260246000fd5b600080fd5b600080fd5b600080fd5b600080fd5b6000601f19601f8301169050919050565b6200079181620006a0565b81146200079d57600080fd5b50565b620007ab81620006aa565b8114620007b757600080fd5b5056fe60806040523480156200001157600080fd5b5060405162001b2738038062001b2783398181016040528101906200003791906200039b565b838381600390805190602001906200005192919062000228565b5080600490805190602001906200006a92919062000228565b5050506200007f8583620000a560201b60201c565b80600560006101000a81548160ff021916908360ff1602179055505050505050620007bb565b600073ffffffffffffffffffffffffffffffffffffffff168273ffffffffffffffffffffffffffffffffffffffff16141562000118576040517f08c379a00000000000000000000000000000000000000000000000000000000081526004016200010f9062000499565b60405180910390fd5b6200012c600083836200021e60201b60201c565b806002600082825462000140919062000548565b92505081905550806000808473ffffffffffffffffffffffffffffffffffffffff1673ffffffffffffffffffffffffffffffffffffffff168152602001908152602001600020600082825462000197919062000548565b925050819055508173ffffffffffffffffffffffffffffffffffffffff16600073ffffffffffffffffffffffffffffffffffffffff167fddf252ad1be2c89b69c2b068fc378daa952ba7f163c4a11628f55a4df523b3ef83604051620001fe9190620004bb565b60405180910390a36200021a600083836200022360201b60201c565b5050565b505050565b505050565b828054620002369062000626565b90600052602060002090601f0160209004810192826200025a5760008555620002a6565b82601f106200027557805160ff1916838001178555620002a6565b82800160010185558215620002a6579182015b82811115620002a557825182559160200191906001019062000288565b5b509050620002b59190620002b9565b5090565b5b80821115620002d4576000816000905550600101620002ba565b5090565b6000620002ef620002e98462000501565b620004d8565b9050828152602081018484840111156200030e576200030d62000724565b5b6200031b848285620005f0565b509392505050565b60008151905062000334816200076d565b92915050565b600082601f8301126200035257620003516200071f565b5b815162000364848260208601620002d8565b91505092915050565b6000815190506200037e8162000787565b92915050565b6000815190506200039581620007a1565b92915050565b600080600080600060a08688031215620003ba57620003b96200072e565b5b6000620003ca8882890162000323565b955050602086015167ffffffffffffffff811115620003ee57620003ed62000729565b5b620003fc888289016200033a565b945050604086015167ffffffffffffffff81111562000420576200041f62000729565b5b6200042e888289016200033a565b935050606062000441888289016200036d565b9250506080620004548882890162000384565b9150509295509295909350565b600062000470601f8362000537565b91506200047d8262000744565b602082019050919050565b6200049381620005d9565b82525050565b60006020820190508181036000830152620004b48162000461565b9050919050565b6000602082019050620004d2600083018462000488565b92915050565b6000620004e4620004f7565b9050620004f282826200065c565b919050565b6000604051905090565b600067ffffffffffffffff8211156200051f576200051e620006f0565b5b6200052a8262000733565b9050602081019050919050565b600082825260208201905092915050565b60006200055582620005d9565b91506200056283620005d9565b9250827fffffffffffffffffffffffffffffffffffffffffffffffffffffffffffffffff038211156200059a576200059962000692565b5b828201905092915050565b6000620005b282620005b9565b9050919050565b600073ffffffffffffffffffffffffffffffffffffffff82169050919050565b6000819050919050565b600060ff82169050919050565b60005b8381101562000610578082015181840152602081019050620005f3565b8381111562000620576000848401525b50505050565b600060028204905060018216806200063f57607f821691505b60208210811415620006565762000655620006c1565b5b50919050565b620006678262000733565b810181811067ffffffffffffffff82111715620006895762000688620006f0565b5b80604052505050565b7f4e487b7100000000000000000000000000000000000000000000000000000000600052601160045260246000fd5b7f4e487b7100000000000000000000000000000000000000000000000000000000600052602260045260246000fd5b7f4e487b7100000000000000000000000000000000000000000000000000000000600052604160045260246000fd5b600080fd5b600080fd5b600080fd5b600080fd5b6000601f19601f8301169050919050565b7f45524332303a206d696e7420746f20746865207a65726f206164647265737300600082015250565b6200077881620005a5565b81146200078457600080fd5b50565b6200079281620005d9565b81146200079e57600080fd5b50565b620007ac81620005e3565b8114620007b857600080fd5b50565b61135c80620007cb6000396000f3fe608060405234801561001057600080fd5b50600436106100a95760003560e01c80633950935111610071578063395093511461016857806370a082311461019857806395d89b41146101c8578063a457c2d7146101e6578063a9059cbb14610216578063dd62ed3e14610246576100a9565b806306fdde03146100ae578063095ea7b3146100cc57806318160ddd146100fc57806323b872dd1461011a578063313ce5671461014a575b600080fd5b6100b6610276565b6040516100c39190610e1d565b60405180910390f35b6100e660048036038101906100e19190610c67565b610308565b6040516100f39190610e02565b60405180910390f35b61010461032b565b6040516101119190610f1f565b60405180910390f35b610134600480360381019061012f9190610c14565b610335565b6040516101419190610e02565b60405180910390f35b610152610364565b60405161015f9190610f3a565b60405180910390f35b610182600480360381019061017d9190610c67565b61037b565b60405161018f9190610e02565b60405180910390f35b6101b260048036038101906101ad9190610ba7565b610425565b6040516101bf9190610f1f565b60405180910390f35b6101d061046d565b6040516101dd9190610e1d565b60405180910390f35b61020060048036038101906101fb9190610c67565b6104ff565b60405161020d9190610e02565b60405180910390f35b610230600480360381019061022b9190610c67565b6105e9565b60405161023d9190610e02565b60405180910390f35b610260600480360381019061025b9190610bd4565b61060c565b60405161026d9190610f1f565b60405180910390f35b6060600380546102859061104f565b80601f01602080910402602001604051908101604052809291908181526020018280546102b19061104f565b80156102fe5780601f106102d3576101008083540402835291602001916102fe565b820191906000526020600020905b8154815290600101906020018083116102e157829003601f168201915b5050505050905090565b600080610313610693565b905061032081858561069b565b600191505092915050565b6000600254905090565b600080610340610693565b905061034d858285610866565b6103588585856108f2565b60019150509392505050565b6000600560009054906101000a900460ff16905090565b600080610386610693565b905061041a818585600160008673ffffffffffffffffffffffffffffffffffffffff1673ffffffffffffffffffffffffffffffffffffffff16815260200190815260200160002060008973ffffffffffffffffffffffffffffffffffffffff1673ffffffffffffffffffffffffffffffffffffffff168152602001908152602001600020546104159190610f71565b61069b565b600191505092915050565b60008060008373ffffffffffffffffffffffffffffffffffffffff1673ffffffffffffffffffffffffffffffffffffffff168152602001908152602001600020549050919050565b60606004805461047c9061104f565b80601f01602080910402602001604051908101604052809291908181526020018280546104a89061104f565b80156104f55780601f106104ca576101008083540402835291602001916104f5565b820191906000526020600020905b8154815290600101906020018083116104d857829003601f168201915b5050505050905090565b60008061050a610693565b90506000600160008373ffffffffffffffffffffffffffffffffffffffff1673ffffffffffffffffffffffffffffffffffffffff16815260200190815260200160002060008673ffffffffffffffffffffffffffffffffffffffff1673ffffffffffffffffffffffffffffffffffffffff168152602001908152602001600020549050838110156105d0576040517f08c379a00000000000000000000000000000000000000000000000000000000081526004016105c790610eff565b60405180910390fd5b6105dd828686840361069b565b60019250505092915050565b6000806105f4610693565b90506106018185856108f2565b600191505092915050565b6000600160008473ffffffffffffffffffffffffffffffffffffffff1673ffffffffffffffffffffffffffffffffffffffff16815260200190815260200160002060008373ffffffffffffffffffffffffffffffffffffffff1673ffffffffffffffffffffffffffffffffffffffff16815260200190815260200160002054905092915050565b600033905090565b600073ffffffffffffffffffffffffffffffffffffffff168373ffffffffffffffffffffffffffffffffffffffff16141561070b576040517f08c379a000000000000000000000000000000000000000000000000000000000815260040161070290610edf565b60405180910390fd5b600073ffffffffffffffffffffffffffffffffffffffff168273ffffffffffffffffffffffffffffffffffffffff16141561077b576040517f08c379a000000000000000000000000000000000000000000000000000000000815260040161077290610e5f565b60405180910390fd5b80600160008573ffffffffffffffffffffffffffffffffffffffff1673ffffffffffffffffffffffffffffffffffffffff16815260200190815260200160002060008473ffffffffffffffffffffffffffffffffffffffff1673ffffffffffffffffffffffffffffffffffffffff168152602001908152602001600020819055508173ffffffffffffffffffffffffffffffffffffffff168373ffffffffffffffffffffffffffffffffffffffff167f8c5be1e5ebec7d5bd14f71427d1e84f3dd0314c0f7b2291e5b200ac8c7c3b925836040516108599190610f1f565b60405180910390a3505050565b6000610872848461060c565b90507fffffffffffffffffffffffffffffffffffffffffffffffffffffffffffffffff81146108ec57818110156108de576040517f08c379a00000000000000000000000000000000000000000000000000000000081526004016108d590610e7f565b60405180910390fd5b6108eb848484840361069b565b5b50505050565b600073ffffffffffffffffffffffffffffffffffffffff168373ffffffffffffffffffffffffffffffffffffffff161415610962576040517f08c379a000000000000000000000000000000000000000000000000000000000815260040161095990610ebf565b60405180910390fd5b600073ffffffffffffffffffffffffffffffffffffffff168273ffffffffffffffffffffffffffffffffffffffff1614156109d2576040517f08c379a00000000000000000000000000000000000000000000000000000000081526004016109c990610e3f565b60405180910390fd5b6109dd838383610b73565b60008060008573ffffffffffffffffffffffffffffffffffffffff1673ffffffffffffffffffffffffffffffffffffffff16815260200190815260200160002054905081811015610a63576040517f08c379a0000000000000000000000000000000000000000000000000000000008152600401610a5a90610e9f565b60405180910390fd5b8181036000808673ffffffffffffffffffffffffffffffffffffffff1673ffffffffffffffffffffffffffffffffffffffff16815260200190815260200160002081905550816000808573ffffffffffffffffffffffffffffffffffffffff1673ffffffffffffffffffffffffffffffffffffffff1681526020019081526020016000206000828254610af69190610f71565b925050819055508273ffffffffffffffffffffffffffffffffffffffff168473ffffffffffffffffffffffffffffffffffffffff167fddf252ad1be2c89b69c2b068fc378daa952ba7f163c4a11628f55a4df523b3ef84604051610b5a9190610f1f565b60405180910390a3610b6d848484610b78565b50505050565b505050565b505050565b600081359050610b8c816112f8565b92915050565b600081359050610ba18161130f565b92915050565b600060208284031215610bbd57610bbc6110df565b5b6000610bcb84828501610b7d565b91505092915050565b60008060408385031215610beb57610bea6110df565b5b6000610bf985828601610b7d565b9250506020610c0a85828601610b7d565b9150509250929050565b600080600060608486031215610c2d57610c2c6110df565b5b6000610c3b86828701610b7d565b9350506020610c4c86828701610b7d565b9250506040610c5d86828701610b92565b9150509250925092565b60008060408385031215610c7e57610c7d6110df565b5b6000610c8c85828601610b7d565b9250506020610c9d85828601610b92565b9150509250929050565b610cb081610fd9565b82525050565b6000610cc182610f55565b610ccb8185610f60565b9350610cdb81856020860161101c565b610ce4816110e4565b840191505092915050565b6000610cfc602383610f60565b9150610d07826110f5565b604082019050919050565b6000610d1f602283610f60565b9150610d2a82611144565b604082019050919050565b6000610d42601d83610f60565b9150610d4d82611193565b602082019050919050565b6000610d65602683610f60565b9150610d70826111bc565b604082019050919050565b6000610d88602583610f60565b9150610d938261120b565b604082019050919050565b6000610dab602483610f60565b9150610db68261125a565b604082019050919050565b6000610dce602583610f60565b9150610dd9826112a9565b604082019050919050565b610ded81611005565b82525050565b610dfc8161100f565b82525050565b6000602082019050610e176000830184610ca7565b92915050565b60006020820190508181036000830152610e378184610cb6565b905092915050565b60006020820190508181036000830152610e5881610cef565b9050919050565b60006020820190508181036000830152610e7881610d12565b9050919050565b60006020820190508181036000830152610e9881610d35565b9050919050565b60006020820190508181036000830152610eb881610d58565b9050919050565b60006020820190508181036000830152610ed881610d7b565b9050919050565b60006020820190508181036000830152610ef881610d9e565b9050919050565b60006020820190508181036000830152610f1881610dc1565b9050919050565b6000602082019050610f346000830184610de4565b92915050565b6000602082019050610f4f6000830184610df3565b92915050565b600081519050919050565b600082825260208201905092915050565b6000610f7c82611005565b9150610f8783611005565b9250827fffffffffffffffffffffffffffffffffffffffffffffffffffffffffffffffff03821115610fbc57610fbb611081565b5b828201905092915050565b6000610fd282610fe5565b9050919050565b60008115159050919050565b600073ffffffffffffffffffffffffffffffffffffffff82169050919050565b6000819050919050565b600060ff82169050919050565b60005b8381101561103a57808201518184015260208101905061101f565b83811115611049576000848401525b50505050565b6000600282049050600182168061106757607f821691505b6020821081141561107b5761107a6110b0565b5b50919050565b7f4e487b7100000000000000000000000000000000000000000000000000000000600052601160045260246000fd5b7f4e487b7100000000000000000000000000000000000000000000000000000000600052602260045260246000fd5b600080fd5b6000601f19601f8301169050919050565b7f45524332303a207472616e7366657220746f20746865207a65726f206164647260008201527f6573730000000000000000000000000000000000000000000000000000000000602082015250565b7f45524332303a20617070726f766520746f20746865207a65726f20616464726560008201527f7373000000000000000000000000000000000000000000000000000000000000602082015250565b7f45524332303a20696e73756666696369656e7420616c6c6f77616e6365000000600082015250565b7f45524332303a207472616e7366657220616d6f756e742065786365656473206260008201527f616c616e63650000000000000000000000000000000000000000000000000000602082015250565b7f45524332303a207472616e736665722066726f6d20746865207a65726f20616460008201527f6472657373000000000000000000000000000000000000000000000000000000602082015250565b7f45524332303a20617070726f76652066726f6d20746865207a65726f2061646460008201527f7265737300000000000000000000000000000000000000000000000000000000602082015250565b7f45524332303a2064656372656173656420616c6c6f77616e63652062656c6f7760008201527f207a65726f000000000000000000000000000000000000000000000000000000602082015250565b61130181610fc7565b811461130c57600080fd5b50565b61131881611005565b811461132357600080fd5b5056fea264697066735822122084dbe840777314e444718015340055b78389c9a3bb0e71fbce1e15189b2159f264736f6c63430008060033a2646970667358221220a4bba096dcc7b30381eb621f77029b119f13c79efdaf49414ddefc073324178a64736f6c63430008060033",
  "linkReferences": {},
  "deployedLinkReferences": {}
}