{
  "_format": "hh-sol-artifact-1",
  "contractName": "NeighborhoodFactory",
  "sourceName": "contracts/NeighborhoodFactory.sol",
  "abi": [
    {
      "inputs": [
        {
          "internalType": "string",
          "name": "_name",
          "type": "string"
        }
      ],
      "name": "createNeighborhood",
      "outputs": [],
      "stateMutability": "nonpayable",
      "type": "function"
    },
    {
      "inputs": [],
      "name": "getAllNeighborhoods",
      "outputs": [
        {
          "internalType": "address[]",
          "name": "",
          "type": "address[]"
        }
      ],
      "stateMutability": "view",
      "type": "function"
    },
    {
      "inputs": [
        {
          "internalType": "uint256",
          "name": "",
          "type": "uint256"
        }
      ],
      "name": "neighborhoods",
      "outputs": [
        {
          "internalType": "address",
          "name": "",
          "type": "address"
        }
      ],
      "stateMutability": "view",
      "type": "function"
    }
  ],
  "bytecode": "0x608060405234801561001057600080fd5b50612772806100206000396000f3fe60806040523480156200001157600080fd5b5060043610620000465760003560e01c806316f21470146200004b578063837c5d4c1462000081578063b0851bbc14620000a1575b600080fd5b6200006960048036038101906200006391906200032d565b620000c3565b60405162000078919062000446565b60405180910390f35b6200009f6004803603810190620000999190620002dc565b62000103565b005b620000ab620001a9565b604051620000ba919062000497565b60405180910390f35b60008181548110620000d457600080fd5b906000526020600020016000915054906101000a900473ffffffffffffffffffffffffffffffffffffffff1681565b60003382604051620001159062000239565b6200012292919062000463565b604051809103906000f0801580156200013f573d6000803e3d6000fd5b5090506000819080600181540180825580915050600190039060005260206000200160009091909190916101000a81548173ffffffffffffffffffffffffffffffffffffffff021916908373ffffffffffffffffffffffffffffffffffffffff1602179055505050565b606060008054806020026020016040519081016040528092919081815260200182805480156200022f57602002820191906000526020600020905b8160009054906101000a900473ffffffffffffffffffffffffffffffffffffffff1673ffffffffffffffffffffffffffffffffffffffff1681526020019060010190808311620001e4575b5050505050905090565b6120a6806200069783390190565b60006200025e6200025884620004e4565b620004bb565b9050828152602081018484840111156200027d576200027c6200065c565b5b6200028a848285620005ad565b509392505050565b600082601f830112620002aa57620002a962000657565b5b8135620002bc84826020860162000247565b91505092915050565b600081359050620002d6816200067c565b92915050565b600060208284031215620002f557620002f462000666565b5b600082013567ffffffffffffffff81111562000316576200031562000661565b5b620003248482850162000292565b91505092915050565b60006020828403121562000346576200034562000666565b5b60006200035684828501620002c5565b91505092915050565b60006200036d838362000379565b60208301905092915050565b62000384816200056f565b82525050565b62000395816200056f565b82525050565b6000620003a8826200052a565b620003b481856200054d565b9350620003c1836200051a565b8060005b83811015620003f8578151620003dc88826200035f565b9750620003e98362000540565b925050600181019050620003c5565b5085935050505092915050565b6000620004128262000535565b6200041e81856200055e565b935062000430818560208601620005bc565b6200043b816200066b565b840191505092915050565b60006020820190506200045d60008301846200038a565b92915050565b60006040820190506200047a60008301856200038a565b81810360208301526200048e818462000405565b90509392505050565b60006020820190508181036000830152620004b381846200039b565b905092915050565b6000620004c7620004da565b9050620004d58282620005f2565b919050565b6000604051905090565b600067ffffffffffffffff82111562000502576200050162000628565b5b6200050d826200066b565b9050602081019050919050565b6000819050602082019050919050565b600081519050919050565b600081519050919050565b6000602082019050919050565b600082825260208201905092915050565b600082825260208201905092915050565b60006200057c8262000583565b9050919050565b600073ffffffffffffffffffffffffffffffffffffffff82169050919050565b6000819050919050565b82818337600083830152505050565b60005b83811015620005dc578082015181840152602081019050620005bf565b83811115620005ec576000848401525b50505050565b620005fd826200066b565b810181811067ffffffffffffffff821117156200061f576200061e62000628565b5b80604052505050565b7f4e487b7100000000000000000000000000000000000000000000000000000000600052604160045260246000fd5b600080fd5b600080fd5b600080fd5b600080fd5b6000601f19601f8301169050919050565b6200068781620005a3565b81146200069357600080fd5b5056fe60806040523480156200001157600080fd5b50604051620020a6380380620020a683398181016040528101906200003791906200029a565b620000576200004b6200008960201b60201c565b6200009160201b60201c565b62000068826200009160201b60201c565b80600190805190602001906200008092919062000155565b505050620004d2565b600033905090565b60008060009054906101000a900473ffffffffffffffffffffffffffffffffffffffff169050816000806101000a81548173ffffffffffffffffffffffffffffffffffffffff021916908373ffffffffffffffffffffffffffffffffffffffff1602179055508173ffffffffffffffffffffffffffffffffffffffff168173ffffffffffffffffffffffffffffffffffffffff167f8be0079c531659141344cd1fd0a4f28419497f9722a3daafe3b4186f6b6457e060405160405180910390a35050565b8280546200016390620003c9565b90600052602060002090601f016020900481019282620001875760008555620001d3565b82601f10620001a257805160ff1916838001178555620001d3565b82800160010185558215620001d3579182015b82811115620001d2578251825591602001919060010190620001b5565b5b509050620001e29190620001e6565b5090565b5b8082111562000201576000816000905550600101620001e7565b5090565b60006200021c620002168462000329565b62000300565b9050828152602081018484840111156200023b576200023a62000498565b5b6200024884828562000393565b509392505050565b6000815190506200026181620004b8565b92915050565b600082601f8301126200027f576200027e62000493565b5b81516200029184826020860162000205565b91505092915050565b60008060408385031215620002b457620002b3620004a2565b5b6000620002c48582860162000250565b925050602083015167ffffffffffffffff811115620002e857620002e76200049d565b5b620002f68582860162000267565b9150509250929050565b60006200030c6200031f565b90506200031a8282620003ff565b919050565b6000604051905090565b600067ffffffffffffffff82111562000347576200034662000464565b5b6200035282620004a7565b9050602081019050919050565b60006200036c8262000373565b9050919050565b600073ffffffffffffffffffffffffffffffffffffffff82169050919050565b60005b83811015620003b357808201518184015260208101905062000396565b83811115620003c3576000848401525b50505050565b60006002820490506001821680620003e257607f821691505b60208210811415620003f957620003f862000435565b5b50919050565b6200040a82620004a7565b810181811067ffffffffffffffff821117156200042c576200042b62000464565b5b80604052505050565b7f4e487b7100000000000000000000000000000000000000000000000000000000600052602260045260246000fd5b7f4e487b7100000000000000000000000000000000000000000000000000000000600052604160045260246000fd5b600080fd5b600080fd5b600080fd5b600080fd5b6000601f19601f8301169050919050565b620004c3816200035f565b8114620004cf57600080fd5b50565b611bc480620004e26000396000f3fe6080604052600436106100dd5760003560e01c8063807896d51161007f578063e106e0f611610059578063e106e0f61461027c578063e4d65d54146102a5578063f2fde38b146102e2578063fd4805d61461030b576100dd565b8063807896d51461020c5780638da5cb5b14610228578063bc28d87814610253576100dd565b80632f94dfa3116100bb5780632f94dfa31461017a5780635652077c146101a357806365e481e2146101cc578063715018a6146101f5576100dd565b8063013cf08b146100e257806306fdde03146101245780632dfca4451461014f575b600080fd5b3480156100ee57600080fd5b5061010960048036038101906101049190611355565b610336565b60405161011b96959493929190611535565b60405180910390f35b34801561013057600080fd5b5061013961049c565b6040516101469190611513565b60405180910390f35b34801561015b57600080fd5b5061016461052a565b6040516101719190611684565b60405180910390f35b34801561018657600080fd5b506101a1600480360381019061019c9190611355565b610530565b005b3480156101af57600080fd5b506101ca60048036038101906101c59190611355565b61070c565b005b3480156101d857600080fd5b506101f360048036038101906101ee91906112dd565b6108c9565b005b34801561020157600080fd5b5061020a6109f7565b005b61022660048036038101906102219190611355565b610a7f565b005b34801561023457600080fd5b5061023d610cff565b60405161024a91906114dd565b60405180910390f35b34801561025f57600080fd5b5061027a60048036038101906102759190611355565b610d28565b005b34801561028857600080fd5b506102a3600480360381019061029e91906112b0565b610e9a565b005b3480156102b157600080fd5b506102cc60048036038101906102c791906112b0565b610f89565b6040516102d991906114f8565b60405180910390f35b3480156102ee57600080fd5b50610309600480360381019061030491906112b0565b610fa9565b005b34801561031757600080fd5b506103206110a1565b60405161032d9190611684565b60405180910390f35b600360205280600052604060002060009150905080600001805461035990611825565b80601f016020809104026020016040519081016040528092919081815260200182805461038590611825565b80156103d25780601f106103a7576101008083540402835291602001916103d2565b820191906000526020600020905b8154815290600101906020018083116103b557829003601f168201915b5050505050908060010180546103e790611825565b80601f016020809104026020016040519081016040528092919081815260200182805461041390611825565b80156104605780601f1061043557610100808354040283529160200191610460565b820191906000526020600020905b81548152906001019060200180831161044357829003601f168201915b5050505050908060030154908060040154908060050160009054906101000a900460ff16908060050160019054906101000a900460ff16905086565b600180546104a990611825565b80601f01602080910402602001604051908101604052809291908181526020018280546104d590611825565b80156105225780601f106104f757610100808354040283529160200191610522565b820191906000526020600020905b81548152906001019060200180831161050557829003601f168201915b505050505081565b60045481565b600260003373ffffffffffffffffffffffffffffffffffffffff1673ffffffffffffffffffffffffffffffffffffffff16815260200190815260200160002060009054906101000a900460ff166105bc576040517f08c379a00000000000000000000000000000000000000000000000000000000081526004016105b390611644565b60405180910390fd5b60006003600083815260200190815260200160002090508060050160019054906101000a900460ff16610624576040517f08c379a000000000000000000000000000000000000000000000000000000000815260040161061b906115e4565b60405180910390fd5b3373ffffffffffffffffffffffffffffffffffffffff166108fc8260020160003373ffffffffffffffffffffffffffffffffffffffff1673ffffffffffffffffffffffffffffffffffffffff168152602001908152602001600020549081150290604051600060405180830381858888f193505050501580156106ab573d6000803e3d6000fd5b508060020160003373ffffffffffffffffffffffffffffffffffffffff1673ffffffffffffffffffffffffffffffffffffffff168152602001908152602001600020548160040160008282546107019190611767565b925050819055505050565b6107146110a7565b73ffffffffffffffffffffffffffffffffffffffff16610732610cff565b73ffffffffffffffffffffffffffffffffffffffff1614610788576040517f08c379a000000000000000000000000000000000000000000000000000000000815260040161077f90611624565b60405180910390fd5b8060006003600083815260200190815260200160002090508060050160009054906101000a900460ff16156107f2576040517f08c379a00000000000000000000000000000000000000000000000000000000081526004016107e9906115a4565b60405180910390fd5b8060050160019054906101000a900460ff1615610844576040517f08c379a000000000000000000000000000000000000000000000000000000000815260040161083b90611604565b60405180910390fd5b60006003600085815260200190815260200160002090503373ffffffffffffffffffffffffffffffffffffffff166108fc82600401549081150290604051600060405180830381858888f193505050501580156108a5573d6000803e3d6000fd5b5060018160050160006101000a81548160ff02191690831515021790555050505050565b6108d16110a7565b73ffffffffffffffffffffffffffffffffffffffff166108ef610cff565b73ffffffffffffffffffffffffffffffffffffffff1614610945576040517f08c379a000000000000000000000000000000000000000000000000000000000815260040161093c90611624565b60405180910390fd5b6000600360006004600081548092919061095e90611888565b91905055815260200190815260200160002090508281600001908051906020019061098a929190611173565b50818160010190805190602001906109a3929190611173565b50600081600401819055506000816003018190555060008160050160006101000a81548160ff02191690831515021790555060008160050160016101000a81548160ff021916908315150217905550505050565b6109ff6110a7565b73ffffffffffffffffffffffffffffffffffffffff16610a1d610cff565b73ffffffffffffffffffffffffffffffffffffffff1614610a73576040517f08c379a0000000000000000000000000000000000000000000000000000000008152600401610a6a90611624565b60405180910390fd5b610a7d60006110af565b565b600260003373ffffffffffffffffffffffffffffffffffffffff1673ffffffffffffffffffffffffffffffffffffffff16815260200190815260200160002060009054906101000a900460ff16610b0b576040517f08c379a0000000000000000000000000000000000000000000000000000000008152600401610b0290611644565b60405180910390fd5b8060006003600083815260200190815260200160002090508060050160009054906101000a900460ff1615610b75576040517f08c379a0000000000000000000000000000000000000000000000000000000008152600401610b6c906115a4565b60405180910390fd5b8060050160019054906101000a900460ff1615610bc7576040517f08c379a0000000000000000000000000000000000000000000000000000000008152600401610bbe90611604565b60405180910390fd5b60003411610c0a576040517f08c379a0000000000000000000000000000000000000000000000000000000008152600401610c0190611664565b60405180910390fd5b600060036000858152602001908152602001600020905060008160020160003373ffffffffffffffffffffffffffffffffffffffff1673ffffffffffffffffffffffffffffffffffffffff168152602001908152602001600020541415610c8657806003016000815480929190610c8090611888565b91905055505b348160020160003373ffffffffffffffffffffffffffffffffffffffff1673ffffffffffffffffffffffffffffffffffffffff1681526020019081526020016000206000828254610cd79190611711565b9250508190555034816004016000828254610cf29190611711565b9250508190555050505050565b60008060009054906101000a900473ffffffffffffffffffffffffffffffffffffffff16905090565b610d306110a7565b73ffffffffffffffffffffffffffffffffffffffff16610d4e610cff565b73ffffffffffffffffffffffffffffffffffffffff1614610da4576040517f08c379a0000000000000000000000000000000000000000000000000000000008152600401610d9b90611624565b60405180910390fd5b8060006003600083815260200190815260200160002090508060050160009054906101000a900460ff1615610e0e576040517f08c379a0000000000000000000000000000000000000000000000000000000008152600401610e05906115a4565b60405180910390fd5b8060050160019054906101000a900460ff1615610e60576040517f08c379a0000000000000000000000000000000000000000000000000000000008152600401610e5790611604565b60405180910390fd5b600060036000858152602001908152602001600020905060018160050160016101000a81548160ff02191690831515021790555050505050565b610ea26110a7565b73ffffffffffffffffffffffffffffffffffffffff16610ec0610cff565b73ffffffffffffffffffffffffffffffffffffffff1614610f16576040517f08c379a0000000000000000000000000000000000000000000000000000000008152600401610f0d90611624565b60405180910390fd5b6001600260008373ffffffffffffffffffffffffffffffffffffffff1673ffffffffffffffffffffffffffffffffffffffff16815260200190815260200160002060006101000a81548160ff02191690831515021790555060056000815480929190610f8190611888565b919050555050565b60026020528060005260406000206000915054906101000a900460ff1681565b610fb16110a7565b73ffffffffffffffffffffffffffffffffffffffff16610fcf610cff565b73ffffffffffffffffffffffffffffffffffffffff1614611025576040517f08c379a000000000000000000000000000000000000000000000000000000000815260040161101c90611624565b60405180910390fd5b600073ffffffffffffffffffffffffffffffffffffffff168173ffffffffffffffffffffffffffffffffffffffff161415611095576040517f08c379a000000000000000000000000000000000000000000000000000000000815260040161108c906115c4565b60405180910390fd5b61109e816110af565b50565b60055481565b600033905090565b60008060009054906101000a900473ffffffffffffffffffffffffffffffffffffffff169050816000806101000a81548173ffffffffffffffffffffffffffffffffffffffff021916908373ffffffffffffffffffffffffffffffffffffffff1602179055508173ffffffffffffffffffffffffffffffffffffffff168173ffffffffffffffffffffffffffffffffffffffff167f8be0079c531659141344cd1fd0a4f28419497f9722a3daafe3b4186f6b6457e060405160405180910390a35050565b82805461117f90611825565b90600052602060002090601f0160209004810192826111a157600085556111e8565b82601f106111ba57805160ff19168380011785556111e8565b828001600101855582156111e8579182015b828111156111e75782518255916020019190600101906111cc565b5b5090506111f591906111f9565b5090565b5b808211156112125760008160009055506001016111fa565b5090565b6000611229611224846116c4565b61169f565b90508281526020810184848401111561124557611244611963565b5b6112508482856117e3565b509392505050565b60008135905061126781611b60565b92915050565b600082601f8301126112825761128161195e565b5b8135611292848260208601611216565b91505092915050565b6000813590506112aa81611b77565b92915050565b6000602082840312156112c6576112c561196d565b5b60006112d484828501611258565b91505092915050565b600080604083850312156112f4576112f361196d565b5b600083013567ffffffffffffffff81111561131257611311611968565b5b61131e8582860161126d565b925050602083013567ffffffffffffffff81111561133f5761133e611968565b5b61134b8582860161126d565b9150509250929050565b60006020828403121561136b5761136a61196d565b5b60006113798482850161129b565b91505092915050565b61138b8161179b565b82525050565b61139a816117ad565b82525050565b60006113ab826116f5565b6113b58185611700565b93506113c58185602086016117f2565b6113ce81611972565b840191505092915050565b60006113e6602783611700565b91506113f182611983565b604082019050919050565b6000611409602683611700565b9150611414826119d2565b604082019050919050565b600061142c603683611700565b915061143782611a21565b604082019050919050565b600061144f601f83611700565b915061145a82611a70565b602082019050919050565b6000611472602083611700565b915061147d82611a99565b602082019050919050565b6000611495603983611700565b91506114a082611ac2565b604082019050919050565b60006114b8603183611700565b91506114c382611b11565b604082019050919050565b6114d7816117d9565b82525050565b60006020820190506114f26000830184611382565b92915050565b600060208201905061150d6000830184611391565b92915050565b6000602082019050818103600083015261152d81846113a0565b905092915050565b600060c082019050818103600083015261154f81896113a0565b9050818103602083015261156381886113a0565b905061157260408301876114ce565b61157f60608301866114ce565b61158c6080830185611391565b61159960a0830184611391565b979650505050505050565b600060208201905081810360008301526115bd816113d9565b9050919050565b600060208201905081810360008301526115dd816113fc565b9050919050565b600060208201905081810360008301526115fd8161141f565b9050919050565b6000602082019050818103600083015261161d81611442565b9050919050565b6000602082019050818103600083015261163d81611465565b9050919050565b6000602082019050818103600083015261165d81611488565b9050919050565b6000602082019050818103600083015261167d816114ab565b9050919050565b600060208201905061169960008301846114ce565b92915050565b60006116a96116ba565b90506116b58282611857565b919050565b6000604051905090565b600067ffffffffffffffff8211156116df576116de61192f565b5b6116e882611972565b9050602081019050919050565b600081519050919050565b600082825260208201905092915050565b600061171c826117d9565b9150611727836117d9565b9250827fffffffffffffffffffffffffffffffffffffffffffffffffffffffffffffffff0382111561175c5761175b6118d1565b5b828201905092915050565b6000611772826117d9565b915061177d836117d9565b9250828210156117905761178f6118d1565b5b828203905092915050565b60006117a6826117b9565b9050919050565b60008115159050919050565b600073ffffffffffffffffffffffffffffffffffffffff82169050919050565b6000819050919050565b82818337600083830152505050565b60005b838110156118105780820151818401526020810190506117f5565b8381111561181f576000848401525b50505050565b6000600282049050600182168061183d57607f821691505b6020821081141561185157611850611900565b5b50919050565b61186082611972565b810181811067ffffffffffffffff8211171561187f5761187e61192f565b5b80604052505050565b6000611893826117d9565b91507fffffffffffffffffffffffffffffffffffffffffffffffffffffffffffffffff8214156118c6576118c56118d1565b5b600182019050919050565b7f4e487b7100000000000000000000000000000000000000000000000000000000600052601160045260246000fd5b7f4e487b7100000000000000000000000000000000000000000000000000000000600052602260045260246000fd5b7f4e487b7100000000000000000000000000000000000000000000000000000000600052604160045260246000fd5b600080fd5b600080fd5b600080fd5b600080fd5b6000601f19601f8301169050919050565b7f5468652070726f706f73616c2068617320616c7265616479206265656e20636f60008201527f6d706c6574656400000000000000000000000000000000000000000000000000602082015250565b7f4f776e61626c653a206e6577206f776e657220697320746865207a65726f206160008201527f6464726573730000000000000000000000000000000000000000000000000000602082015250565b7f5468652070726f706f73616c20686173206e6f7420796574206265656e20636160008201527f6e63656c6c656420627920746865206d616e6167657200000000000000000000602082015250565b7f5468652070726f706f73616c20686173206265656e2063616e63656c6c656400600082015250565b7f4f776e61626c653a2063616c6c6572206973206e6f7420746865206f776e6572600082015250565b7f596f7520617265206e6f7420726567697374657265642061732061207265736960008201527f64656e74206f662074686973206e65696768626f72686f6f6400000000000000602082015250565b7f596f75206e65656420746f20636f6e7472696275746520736f6d652066756e6460008201527f7320746f207468652070726f706f73616c000000000000000000000000000000602082015250565b611b698161179b565b8114611b7457600080fd5b50565b611b80816117d9565b8114611b8b57600080fd5b5056fea2646970667358221220830e717c82a8371ba94f014877cf5558c802a6dc9db8815e241b5538688c986864736f6c63430008060033a26469706673582212207ca5b7c9e8cd570ea008eaef643e85d47760673a96abb05993894c457986340b64736f6c63430008060033",
  "linkReferences": {},
  "deployedLinkReferences": {}
}